{
    "contractName": "Certify",
    "abi": [
        {
            "inputs": [],
            "stateMutability": "nonpayable",
            "type": "constructor"
        },
        {
            "inputs": [
                {
                    "internalType": "bytes32",
                    "name": "hash",
                    "type": "bytes32"
                },
                {
                    "internalType": "string",
                    "name": "insti",
                    "type": "string"
                },
                {
                    "internalType": "string",
                    "name": "reci",
                    "type": "string"
                },
                {
                    "internalType": "string",
                    "name": "course",
                    "type": "string"
                },
                {
                    "internalType": "string",
                    "name": "grade",
                    "type": "string"
                },
                {
                    "internalType": "string",
                    "name": "doc",
                    "type": "string"
                }
            ],
            "name": "addDocHash",
            "outputs": [],
            "stateMutability": "nonpayable",
            "type": "function"
        },
        {
            "inputs": [
                {
                    "internalType": "bytes32",
                    "name": "hash",
                    "type": "bytes32"
                }
            ],
            "name": "findDocHash",
            "outputs": [
                {
                    "internalType": "uint256",
                    "name": "",
                    "type": "uint256"
                },
                {
                    "internalType": "string",
                    "name": "",
                    "type": "string"
                },
                {
                    "internalType": "string",
                    "name": "",
                    "type": "string"
                },
                {
                    "internalType": "string",
                    "name": "",
                    "type": "string"
                },
                {
                    "internalType": "string",
                    "name": "",
                    "type": "string"
                },
                {
                    "internalType": "string",
                    "name": "",
                    "type": "string"
                }
            ],
            "stateMutability": "view",
            "type": "function"
        }
    ],
    "bytecode": "608060405234801561001057600080fd5b5061081a806100206000396000f3fe608060405234801561001057600080fd5b50600436106100365760003560e01c806342ec2bab1461003b5780634cf00d3f14610050575b600080fd5b61004e6100493660046104ee565b61007e565b005b61006361005e3660046105c8565b610142565b60405161007596959493929190610627565b60405180910390f35b6040805160e081018252428152436020808301918252828401898152606084018990526080840188905260a0840187905260c0840186905260008b815291829052939020825181559051600182015591519091829160028201906100e29082610724565b50606082015160038201906100f79082610724565b506080820151600482019061010c9082610724565b5060a082015160058201906101219082610724565b5060c082015160068201906101369082610724565b50505050505050505050565b60008181526020819052604081206001810154600282018054606093849384938493849360038101916004820191600581019160069091019085906101869061069b565b80601f01602080910402602001604051908101604052809291908181526020018280546101b29061069b565b80156101ff5780601f106101d4576101008083540402835291602001916101ff565b820191906000526020600020905b8154815290600101906020018083116101e257829003601f168201915b505050505094508380546102129061069b565b80601f016020809104026020016040519081016040528092919081815260200182805461023e9061069b565b801561028b5780601f106102605761010080835404028352916020019161028b565b820191906000526020600020905b81548152906001019060200180831161026e57829003601f168201915b5050505050935082805461029e9061069b565b80601f01602080910402602001604051908101604052809291908181526020018280546102ca9061069b565b80156103175780601f106102ec57610100808354040283529160200191610317565b820191906000526020600020905b8154815290600101906020018083116102fa57829003601f168201915b5050505050925081805461032a9061069b565b80601f01602080910402602001604051908101604052809291908181526020018280546103569061069b565b80156103a35780601f10610378576101008083540402835291602001916103a3565b820191906000526020600020905b81548152906001019060200180831161038657829003601f168201915b505050505091508080546103b69061069b565b80601f01602080910402602001604051908101604052809291908181526020018280546103e29061069b565b801561042f5780601f106104045761010080835404028352916020019161042f565b820191906000526020600020905b81548152906001019060200180831161041257829003601f168201915b5050505050905095509550955095509550955091939550919395565b634e487b7160e01b600052604160045260246000fd5b600082601f83011261047257600080fd5b813567ffffffffffffffff8082111561048d5761048d61044b565b604051601f8301601f19908116603f011681019082821181831017156104b5576104b561044b565b816040528381528660208588010111156104ce57600080fd5b836020870160208301376000602085830101528094505050505092915050565b60008060008060008060c0878903121561050757600080fd5b86359550602087013567ffffffffffffffff8082111561052657600080fd5b6105328a838b01610461565b9650604089013591508082111561054857600080fd5b6105548a838b01610461565b9550606089013591508082111561056a57600080fd5b6105768a838b01610461565b9450608089013591508082111561058c57600080fd5b6105988a838b01610461565b935060a08901359150808211156105ae57600080fd5b506105bb89828a01610461565b9150509295509295509295565b6000602082840312156105da57600080fd5b5035919050565b6000815180845260005b81811015610607576020818501810151868301820152016105eb565b506000602082860101526020601f19601f83011685010191505092915050565b86815260c06020820152600061064060c08301886105e1565b828103604084015261065281886105e1565b9050828103606084015261066681876105e1565b9050828103608084015261067a81866105e1565b905082810360a084015261068e81856105e1565b9998505050505050505050565b600181811c908216806106af57607f821691505b6020821081036106cf57634e487b7160e01b600052602260045260246000fd5b50919050565b601f82111561071f57600081815260208120601f850160051c810160208610156106fc5750805b601f850160051c820191505b8181101561071b57828155600101610708565b5050505b505050565b815167ffffffffffffffff81111561073e5761073e61044b565b6107528161074c845461069b565b846106d5565b602080601f831160018114610787576000841561076f5750858301515b600019600386901b1c1916600185901b17855561071b565b600085815260208120601f198616915b828110156107b657888601518255948401946001909101908401610797565b50858210156107d45787850151600019600388901b60f8161c191681555b5050505050600190811b0190555056fea26469706673582212209b5579e3cb74994ca619640257d2a1b3456b9df8703f17402648b4271b372c2264736f6c63430008130033",
    "sourcePath": "d:/blockchain-academic-certificate-global-verify-master/contracts/Certify.sol",
    "compiler": {
        "name": "solc",
        "version": "0.8.19+commit.7dd6d404"
    },
    "functionHashes": {
        "addDocHash(bytes32,string,string,string,string,string)": "42ec2bab",
        "findDocHash(bytes32)": "4cf00d3f"
    },
    "gasEstimates": {
        "creation": {
            "codeDepositCost": "414800",
            "executionCost": "449",
            "totalCost": "415249"
        },
        "external": {
            "addDocHash(bytes32,string,string,string,string,string)": "infinite",
            "findDocHash(bytes32)": "infinite"
        }
    }
}